:020000020000FC
:040000000C9431002B
:100028000C941600C19A779BFDCF0FB102BBC29A00
:1000380000E40FB9B09B0C9429000EEA07BB00E05E
:100048000EB900E50DB90C942F000EE407BB00E0D3
:100058000EB900EC0DB97894189504E00EBF0FE5C1
:100068000DBF0FEF01BBB09B0EC000C00EEA07BB6F
:1000780000E00EB900ED0DB900E40FB902BB7894A9
:10008800779BFECF0AC00EE407BB00E40FB900E07F
:0C0098000EB900EC0DB9C39A7894FFCFAC
:00000001FF
