:020000020000FC
:040000000C94330029
:100028000C94160000E00DB9C19A779BFBCF0FB175
:1000380002BBC29A00E40FB9B09B0C942B000EEAE5
:1000480007BB00E00EB900E50DB90C9431000EE4D1
:1000580007BB00E00EB900EC0DB97894189504E0E0
:100068000EBF0FE50DBF0FEF01BBB09B0EC000C068
:100078000EEA07BB00E00EB900ED0DB900E40FB9B8
:1000880002BB7894779BFECF0AC00EE407BB0AE454
:100098000FB900E00EB900EC0DB9C39A7894FFCF00
:00000001FF
